{"abi":[{"type":"function","name":"createCrowdLeasingContract","inputs":[{"name":"_tokenName","type":"string","internalType":"string"},{"name":"_tokenSymbol","type":"string","internalType":"string"}],"outputs":[],"stateMutability":"nonpayable"},{"type":"function","name":"getContractsByUser","inputs":[{"name":"user","type":"address","internalType":"address"}],"outputs":[{"name":"","type":"address[]","internalType":"address[]"}],"stateMutability":"view"},{"type":"function","name":"owner","inputs":[],"outputs":[{"name":"","type":"address","internalType":"address"}],"stateMutability":"view"},{"type":"function","name":"renounceOwnership","inputs":[],"outputs":[],"stateMutability":"nonpayable"},{"type":"function","name":"transferOwnership","inputs":[{"name":"newOwner","type":"address","internalType":"address"}],"outputs":[],"stateMutability":"nonpayable"},{"type":"function","name":"userContracts","inputs":[{"name":"","type":"address","internalType":"address"},{"name":"","type":"uint256","internalType":"uint256"}],"outputs":[{"name":"","type":"address","internalType":"address"}],"stateMutability":"view"},{"type":"event","name":"NewLeasingContract","inputs":[{"name":"user","type":"address","indexed":true,"internalType":"address"},{"name":"contractAddress","type":"address","indexed":false,"internalType":"address"}],"anonymous":false},{"type":"event","name":"OwnershipTransferred","inputs":[{"name":"previousOwner","type":"address","indexed":true,"internalType":"address"},{"name":"newOwner","type":"address","indexed":true,"internalType":"address"}],"anonymous":false}],"bytecode":{"object":"0x608060405234801561001057600080fd5b5061002161001c61002a565b61002e565b6001805561007e565b3390565b600080546001600160a01b038381166001600160a01b0319831681178455604051919092169283917f8be0079c531659141344cd1fd0a4f28419497f9722a3daafe3b4186f6b6457e09190a35050565b61266c8061008d6000396000f3fe60806040523480156200001157600080fd5b50600436106200006a5760003560e01c80634eca495f146200006f5780636f8eb230146200009e578063715018a614620000b75780638da5cb5b14620000c1578063b789003d14620000da578063f2fde38b14620000f1575b600080fd5b6200008662000080366004620004df565b62000108565b604051620000959190620005f9565b60405180910390f35b620000b5620000af3660046200052f565b62000181565b005b620000b5620002b9565b620000cb620002d1565b604051620000959190620005e5565b620000cb620000eb36600462000503565b620002e0565b620000b562000102366004620004df565b62000319565b6001600160a01b0381166000908152600260209081526040918290208054835181840281018401909452808452606093928301828280156200017457602002820191906000526020600020905b81546001600160a01b0316815260019091019060200180831162000155575b505050505090505b919050565b6200018b62000363565b600082826040516200019d9062000430565b620001aa92919062000648565b604051809103906000f080158015620001c7573d6000803e3d6000fd5b509050806001600160a01b03166313af4035620001e3620002d1565b6040518263ffffffff1660e01b8152600401620002019190620005e5565b600060405180830381600087803b1580156200021c57600080fd5b505af115801562000231573d6000803e3d6000fd5b50503360008181526002602090815260408083208054600181018255908452919092200180546001600160a01b0319166001600160a01b038716179055519092507ff0e6aae88b987cb4baad7a3ef7a2cf31bd37f888d1ac0962655d810e5dedf82f9150620002a2908490620005e5565b60405180910390a250620002b562000390565b5050565b620002c362000396565b620002cf6000620003dc565b565b6000546001600160a01b031690565b60026020528160005260406000208181548110620002fd57600080fd5b6000918252602090912001546001600160a01b03169150829050565b6200032362000396565b6001600160a01b038116620003555760405162461bcd60e51b81526004016200034c906200067a565b60405180910390fd5b6200036081620003dc565b50565b60026001541415620003895760405162461bcd60e51b81526004016200034c90620006f5565b6002600155565b60018055565b620003a06200042c565b6001600160a01b0316620003b3620002d1565b6001600160a01b031614620002cf5760405162461bcd60e51b81526004016200034c90620006c0565b600080546001600160a01b038381166001600160a01b0319831681178455604051919092169283917f8be0079c531659141344cd1fd0a4f28419497f9722a3daafe3b4186f6b6457e09190a35050565b3390565b611ef4806200074383390190565b80356001600160a01b03811681146200017c57600080fd5b600082601f83011262000467578081fd5b813567ffffffffffffffff808211156200048557620004856200072c565b604051601f8301601f191681016020018281118282101715620004ac57620004ac6200072c565b604052828152848301602001861015620004c4578384fd5b82602086016020830137918201602001929092529392505050565b600060208284031215620004f1578081fd5b620004fc826200043e565b9392505050565b6000806040838503121562000516578081fd5b62000521836200043e565b946020939093013593505050565b6000806040838503121562000542578182fd5b823567ffffffffffffffff808211156200055a578384fd5b620005688683870162000456565b935060208501359150808211156200057e578283fd5b506200058d8582860162000456565b9150509250929050565b60008151808452815b81811015620005be57602081850181015186830182015201620005a0565b81811115620005d05782602083870101525b50601f01601f19169290920160200192915050565b6001600160a01b0391909116815260200190565b6020808252825182820181905260009190848201906040850190845b818110156200063c5783516001600160a01b03168352928401929184019160010162000615565b50909695505050505050565b6000604082526200065d604083018562000597565b828103602084015262000671818562000597565b95945050505050565b60208082526026908201527f4f776e61626c653a206e6577206f776e657220697320746865207a65726f206160408201526564647265737360d01b606082015260800190565b6020808252818101527f4f776e61626c653a2063616c6c6572206973206e6f7420746865206f776e6572604082015260600190565b6020808252601f908201527f5265656e7472616e637947756172643a207265656e7472616e742063616c6c00604082015260600190565b634e487b7160e01b600052604160045260246000fdfe60806040523480156200001157600080fd5b5060405162001ef438038062001ef4833981016040819052620000349162000239565b600160005581518290829062000052906004906020850190620000e8565b50805162000068906005906020840190620000e8565b505050620000856200007f6200009260201b60201c565b62000096565b50506000600755620002f3565b3390565b600680546001600160a01b038381166001600160a01b0319831681179093556040519116919082907f8be0079c531659141344cd1fd0a4f28419497f9722a3daafe3b4186f6b6457e090600090a35050565b828054620000f690620002a0565b90600052602060002090601f0160209004810192826200011a576000855562000165565b82601f106200013557805160ff191683800117855562000165565b8280016001018555821562000165579182015b828111156200016557825182559160200191906001019062000148565b506200017392915062000177565b5090565b5b8082111562000173576000815560010162000178565b600082601f8301126200019f578081fd5b81516001600160401b0380821115620001bc57620001bc620002dd565b6040516020601f8401601f1916820181018381118382101715620001e457620001e4620002dd565b6040528382528584018101871015620001fb578485fd5b8492505b838310156200021e5785830181015182840182015291820191620001ff565b838311156200022f57848185840101525b5095945050505050565b600080604083850312156200024c578182fd5b82516001600160401b038082111562000263578384fd5b62000271868387016200018e565b9350602085015191508082111562000287578283fd5b5062000296858286016200018e565b9150509250929050565b600281046001821680620002b557607f821691505b60208210811415620002d757634e487b7160e01b600052602260045260246000fd5b50919050565b634e487b7160e01b600052604160045260246000fd5b611bf180620003036000396000f3fe6080604052600436106101405760003560e01c806364bd5059116100b6578063a123469b1161006f578063a123469b14610377578063a457c2d71461038c578063a9059cbb146103ac578063dd62ed3e146103cc578063f2fde38b146103ec578063f6252ff21461040c57610140565b806364bd5059146102cb57806370a08231146102f8578063715018a6146103185780638da5cb5b1461032d57806395d89b41146103425780639cb5b6281461035757610140565b806318160ddd1161010857806318160ddd146101ff57806323b872dd14610221578063313ce5671461024157806339509351146102635780633c4dece31461028357806363083d2e146102b857610140565b806306fdde031461014557806307aaf33d14610170578063095ea7b31461019257806309aace68146101bf57806313af4035146101df575b600080fd5b34801561015157600080fd5b5061015a61042c565b60405161016791906113d3565b60405180910390f35b34801561017c57600080fd5b5061019061018b366004611383565b6104be565b005b34801561019e57600080fd5b506101b26101ad3660046112ff565b610707565b60405161016791906113c8565b3480156101cb57600080fd5b506101b26101da366004611278565b610729565b3480156101eb57600080fd5b506101906101fa366004611278565b61073e565b34801561020b57600080fd5b50610214610778565b6040516101679190611a28565b34801561022d57600080fd5b506101b261023c3660046112c4565b61077e565b34801561024d57600080fd5b506102566107ac565b6040516101679190611af2565b34801561026f57600080fd5b506101b261027e3660046112ff565b6107b1565b34801561028f57600080fd5b506102a361029e366004611328565b6107dd565b60405161016799989796959493929190611a31565b6101906102c6366004611328565b610836565b3480156102d757600080fd5b506102eb6102e6366004611362565b610ae2565b60405161016791906113b4565b34801561030457600080fd5b50610214610313366004611278565b610b1a565b34801561032457600080fd5b50610190610b39565b34801561033957600080fd5b506102eb610b4d565b34801561034e57600080fd5b5061015a610b5c565b34801561036357600080fd5b50610214610372366004611340565b610b6b565b34801561038357600080fd5b50610214610b88565b34801561039857600080fd5b506101b26103a73660046112ff565b610b8e565b3480156103b857600080fd5b506101b26103c73660046112ff565b610bd6565b3480156103d857600080fd5b506102146103e7366004611292565b610bee565b3480156103f857600080fd5b50610190610407366004611278565b610c19565b34801561041857600080fd5b50610214610427366004611328565b610c50565b60606004805461043b90611b4f565b80601f016020809104026020016040519081016040528092919081815260200182805461046790611b4f565b80156104b45780601f10610489576101008083540402835291602001916104b4565b820191906000526020600020905b81548152906001019060200180831161049757829003601f168201915b5050505050905090565b3360009081526009602052604090205460ff16156104f75760405162461bcd60e51b81526004016104ee90611469565b60405180910390fd5b600084116105175760405162461bcd60e51b81526004016104ee90611533565b600083116105375760405162461bcd60e51b81526004016104ee90611731565b600082116105575760405162461bcd60e51b81526004016104ee90611568565b600081116105775760405162461bcd60e51b81526004016104ee9061162d565b600060076000815461058890611b8a565b91829055509050600061059b8442611b00565b60408051610120810182528481523360208201529081018890526000606082018190526080820186905260a0820188905260c0820183905260e082015290915061010081016001905260008381526008602090815260409182902083518155908301516001820180546001600160a01b0319166001600160a01b03909216919091179055908201516002820155606082015160038201556080820151600482015560a0820151600582015560c082015160068083019190915560e083015160078301805460ff191691151591909117808255610100808601519361ff001990921691849081111561069c57634e487b7160e01b600052602160045260246000fd5b0217905550503360008181526009602052604090819020805460ff19166001179055519091507fb7c4665e1e52ac49a6886be2d97e02f225c52e79eaac2cea90bb074a32addca7906106f79085908a908a9087908a90611acf565b60405180910390a2505050505050565b600080610712610cc4565b905061071f818585610cc8565b5060019392505050565b60096020526000908152604090205460ff1681565b610746610d7c565b6001600160a01b03811661076c5760405162461bcd60e51b81526004016104ee906117df565b61077581610c19565b50565b60035490565b600080610789610cc4565b9050610796858285610dbb565b6107a1858585610e05565b506001949350505050565b601290565b6000806107bc610cc4565b905061071f8185856107ce8589610bee565b6107d89190611b00565b610cc8565b6008602052600090815260409020805460018201546002830154600384015460048501546005860154600687015460079097015495966001600160a01b0390951695939492939192909160ff8082169161010090041689565b336000908152600b602052604090205460ff16156108665760405162461bcd60e51b81526004016104ee90611926565b336000908152600c602052604090205461088290600a90611b00565b4210156108a15760405162461bcd60e51b81526004016104ee90611672565b336000908152600b60209081526040808320805460ff19166001908117909155600c83528184204290558484526008909252909120906007820154610100900460ff16600681111561090357634e487b7160e01b600052602160045260246000fd5b146109205760405162461bcd60e51b81526004016104ee906117a8565b80600601544211156109445760405162461bcd60e51b81526004016104ee906116b9565b60008160040154346109569190611b18565b9050600081116109785760405162461bcd60e51b81526004016104ee906118d6565b60008260030154836002015461098e9190611b38565b9050803411156109b05760405162461bcd60e51b81526004016104ee906119a2565b348360030160008282546109c49190611b00565b90915550506000848152600a60209081526040808320338452909152812080548492906109f2908490611b00565b90915550506000848152600a60209081526040808320338452909152902054821415610a47576000848152600d602090815260408220805460018101825590835291200180546001600160a01b031916331790555b826002015483600301541415610a7a57600783018054600161ff00199091166102001760ff1916179055610a7a84610f06565b336001600160a01b03167f823aa7d699676cb2cda99bde5d6ea3331453aea885a94dbc8b503cab0716b2fc8534866003015486604051610abd9493929190611ab4565b60405180910390a25050336000908152600b60205260409020805460ff191690555050565b600d6020528160005260406000208181548110610afe57600080fd5b6000918252602090912001546001600160a01b03169150829050565b6001600160a01b0381166000908152600160205260409020545b919050565b610b41610d7c565b610b4b6000610fdc565b565b6006546001600160a01b031690565b60606005805461043b90611b4f565b600a60209081526000928352604080842090915290825290205481565b60075481565b600080610b99610cc4565b90506000610ba78286610bee565b905083811015610bc95760405162461bcd60e51b81526004016104ee9061195d565b6107a18286868403610cc8565b600080610be1610cc4565b905061071f818585610e05565b6001600160a01b03918216600090815260026020908152604080832093909416825291909152205490565b610c21610d7c565b6001600160a01b038116610c475760405162461bcd60e51b81526004016104ee906114ab565b61077581610fdc565b600081815260086020526040812060016007820154610100900460ff166006811115610c8c57634e487b7160e01b600052602160045260246000fd5b14610ca95760405162461bcd60e51b81526004016104ee906117a8565b80600301548160020154610cbd9190611b38565b9392505050565b3390565b6001600160a01b038316610cee5760405162461bcd60e51b81526004016104ee90611892565b6001600160a01b038216610d145760405162461bcd60e51b81526004016104ee906114f1565b6001600160a01b0380841660008181526002602090815260408083209487168084529490915290819020849055517f8c5be1e5ebec7d5bd14f71427d1e84f3dd0314c0f7b2291e5b200ac8c7c3b92590610d6f908590611a28565b60405180910390a3505050565b610d84610cc4565b6001600160a01b0316610d95610b4d565b6001600160a01b031614610b4b5760405162461bcd60e51b81526004016104ee90611773565b6000610dc78484610bee565b90506000198114610dff5781811015610df25760405162461bcd60e51b81526004016104ee906115b0565b610dff8484848403610cc8565b50505050565b6001600160a01b038316610e2b5760405162461bcd60e51b81526004016104ee9061184d565b6001600160a01b038216610e515760405162461bcd60e51b81526004016104ee90611426565b610e5c838383610fd7565b6001600160a01b03831660009081526001602052604090205481811015610e955760405162461bcd60e51b81526004016104ee906115e7565b6001600160a01b0380851660008181526001602052604080822086860390559286168082529083902080548601905591517fddf252ad1be2c89b69c2b068fc378daa952ba7f163c4a11628f55a4df523b3ef90610ef3908690611a28565b60405180910390a3610dff848484610fd7565b600081815260086020526040902060026007820154610100900460ff166006811115610f4257634e487b7160e01b600052602160045260246000fd5b14610f5f5760405162461bcd60e51b81526004016104ee906116f0565b600081600401548260020154610f759190611b18565b9050610f81308261102e565b60078201805461ff0019166103001790556040517fc61c8e2899bd86923bda7268d6d1b42d8e644ff3dedc13d41d5b798e4aa3523790610fc49085908490611aa6565b60405180910390a1610fd78360006110dc565b505050565b600680546001600160a01b038381166001600160a01b0319831681179093556040519116919082907f8be0079c531659141344cd1fd0a4f28419497f9722a3daafe3b4186f6b6457e090600090a35050565b6001600160a01b0382166110545760405162461bcd60e51b81526004016104ee906119f1565b61106060008383610fd7565b80600360008282546110729190611b00565b90915550506001600160a01b038216600081815260016020526040808220805485019055517fddf252ad1be2c89b69c2b068fc378daa952ba7f163c4a11628f55a4df523b3ef906110c4908590611a28565b60405180910390a36110d860008383610fd7565b5050565b600082815260086020526040902060036007820154610100900460ff16600681111561111857634e487b7160e01b600052602160045260246000fd5b146111355760405162461bcd60e51b81526004016104ee90611816565b600a60006111438285611b00565b6000868152600d60205260409020909150845b82811080156111655750815481105b1561120857600082828154811061118c57634e487b7160e01b600052603260045260246000fd5b60009182526020808320909101548a8352600a825260408084206001600160a01b039092168085529190925291205490915080156111f3576111cf308383610e05565b6000898152600a602090815260408083206001600160a01b03861684529091528120555b5050808061120090611b8a565b915050611156565b5080548210156112215761121c86836110dc565b611259565b7fe931a2ade2ca5ad4fb6fc001fa5a3d7f2d8c05b601e8322cba7e5f513512314d866040516112509190611a28565b60405180910390a15b505050505050565b80356001600160a01b0381168114610b3457600080fd5b600060208284031215611289578081fd5b610cbd82611261565b600080604083850312156112a4578081fd5b6112ad83611261565b91506112bb60208401611261565b90509250929050565b6000806000606084860312156112d8578081fd5b6112e184611261565b92506112ef60208501611261565b9150604084013590509250925092565b60008060408385031215611311578182fd5b61131a83611261565b946020939093013593505050565b600060208284031215611339578081fd5b5035919050565b60008060408385031215611352578182fd5b823591506112bb60208401611261565b60008060408385031215611374578182fd5b50508035926020909101359150565b60008060008060808587031215611398578081fd5b5050823594602084013594506040840135936060013592509050565b6001600160a01b0391909116815260200190565b901515815260200190565b6000602080835283518082850152825b818110156113ff578581018301518582016040015282016113e3565b818111156114105783604083870101525b50601f01601f1916929092016040019392505050565b60208082526023908201527f45524332303a207472616e7366657220746f20746865207a65726f206164647260408201526265737360e81b606082015260800190565b60208082526022908201527f5573657220616c7265616479206861732061206c656173696e672072657175656040820152611cdd60f21b606082015260800190565b60208082526026908201527f4f776e61626c653a206e6577206f776e657220697320746865207a65726f206160408201526564647265737360d01b606082015260800190565b60208082526022908201527f45524332303a20617070726f766520746f20746865207a65726f206164647265604082015261737360f01b606082015260800190565b6020808252818101527f416d6f756e74206d7573742062652067726561746572207468616e207a65726f604082015260600190565b60208082526028908201527f46756e64696e6720706572696f64206d7573742062652067726561746572207460408201526768616e207a65726f60c01b606082015260800190565b6020808252601d908201527f45524332303a20696e73756666696369656e7420616c6c6f77616e6365000000604082015260600190565b60208082526026908201527f45524332303a207472616e7366657220616d6f756e7420657863656564732062604082015265616c616e636560d01b606082015260800190565b60208082526025908201527f546f6b656e207072696365206d7573742062652067726561746572207468616e604082015264207a65726f60d81b606082015260800190565b60208082526027908201527f5265656e7472616e637947756172643a20636f6f6c646f776e20706572696f646040820152662061637469766560c81b606082015260800190565b6020808252601b908201527f46756e64696e6720646561646c696e6520686173207061737365640000000000604082015260600190565b60208082526021908201527f4c656173696e672072657175657374206973206e6f742066756e6465642079656040820152601d60fa1b606082015260800190565b60208082526022908201527f4475726174696f6e206d7573742062652067726561746572207468616e207a65604082015261726f60f01b606082015260800190565b6020808252818101527f4f776e61626c653a2063616c6c6572206973206e6f7420746865206f776e6572604082015260600190565b6020808252601d908201527f4c656173696e672072657175657374206973206e6f7420616374697665000000604082015260600190565b6020808252601d908201527f4e6577206f776e657220697320746865207a65726f2061646472657373000000604082015260600190565b6020808252601f908201527f546f6b656e732068617665206e6f74206265656e206d696e7465642079657400604082015260600190565b60208082526025908201527f45524332303a207472616e736665722066726f6d20746865207a65726f206164604082015264647265737360d81b606082015260800190565b60208082526024908201527f45524332303a20617070726f76652066726f6d20746865207a65726f206164646040820152637265737360e01b606082015260800190565b60208082526030908201527f496e766573746d656e7420646f6573206e6f74206d65657420746865206d696e60408201526f696d756d20746f6b656e20707269636560801b606082015260800190565b6020808252601f908201527f5265656e7472616e637947756172643a207265656e7472616e742063616c6c00604082015260600190565b60208082526025908201527f45524332303a2064656372656173656420616c6c6f77616e63652062656c6f77604082015264207a65726f60d81b606082015260800190565b6020808252602f908201527f496e766573746d656e742065786365656473207468652072656d61696e696e6760408201526e08199d5b991a5b99c8185b5bdd5b9d608a1b606082015260800190565b6020808252601f908201527f45524332303a206d696e7420746f20746865207a65726f206164647265737300604082015260600190565b90815260200190565b8981526001600160a01b038916602082015260408101889052606081018790526080810186905260a0810185905260c0810184905282151560e0820152610120810160078310611a9157634e487b7160e01b600052602160045260246000fd5b826101008301529a9950505050505050505050565b918252602082015260400190565b93845260208401929092526040830152606082015260800190565b948552602085019390935260408401919091526060830152608082015260a00190565b60ff91909116815260200190565b60008219821115611b1357611b13611ba5565b500190565b600082611b3357634e487b7160e01b81526012600452602481fd5b500490565b600082821015611b4a57611b4a611ba5565b500390565b600281046001821680611b6357607f821691505b60208210811415611b8457634e487b7160e01b600052602260045260246000fd5b50919050565b6000600019821415611b9e57611b9e611ba5565b5060010190565b634e487b7160e01b600052601160045260246000fdfea26469706673582212203e76eb3226c6e7b431e1b79aec4df534bea146a98042ff462312345d342720a064736f6c63430008000033a264697066735822122032151c29ffca61ae7be40854725ae1f0a8730e8521c6d215d4935f02e682d4b164736f6c63430008000033","linkReferences":{}},"methodIdentifiers":{"createCrowdLeasingContract(string,string)":"6f8eb230","getContractsByUser(address)":"4eca495f","owner()":"8da5cb5b","renounceOwnership()":"715018a6","transferOwnership(address)":"f2fde38b","userContracts(address,uint256)":"b789003d"},"id":33}